{
  "contractName": "MetaCoin",
  "abi": [
    {
      "inputs": [],
      "stateMutability": "nonpayable",
      "type": "constructor"
    },
    {
      "anonymous": false,
      "inputs": [
        {
          "indexed": true,
          "internalType": "address",
          "name": "_from",
          "type": "address"
        },
        {
          "indexed": true,
          "internalType": "address",
          "name": "_to",
          "type": "address"
        },
        {
          "indexed": false,
          "internalType": "uint256",
          "name": "_value",
          "type": "uint256"
        }
      ],
      "name": "Transfer",
      "type": "event"
    },
    {
      "inputs": [
        {
          "internalType": "address",
          "name": "receiver",
          "type": "address"
        },
        {
          "internalType": "uint256",
          "name": "amount",
          "type": "uint256"
        }
      ],
      "name": "sendCoin",
      "outputs": [
        {
          "internalType": "bool",
          "name": "sufficient",
          "type": "bool"
        }
      ],
      "stateMutability": "nonpayable",
      "type": "function"
    },
    {
      "inputs": [
        {
          "internalType": "address",
          "name": "addr",
          "type": "address"
        }
      ],
      "name": "getBalanceInEth",
      "outputs": [
        {
          "internalType": "uint256",
          "name": "",
          "type": "uint256"
        }
      ],
      "stateMutability": "view",
      "type": "function",
      "constant": true
    },
    {
      "inputs": [
        {
          "internalType": "address",
          "name": "addr",
          "type": "address"
        }
      ],
      "name": "getBalance",
      "outputs": [
        {
          "internalType": "uint256",
          "name": "",
          "type": "uint256"
        }
      ],
      "stateMutability": "view",
      "type": "function",
      "constant": true
    },
    {
      "inputs": [],
      "name": "getLatestPrice",
      "outputs": [
        {
          "internalType": "int256",
          "name": "",
          "type": "int256"
        }
      ],
      "stateMutability": "view",
      "type": "function",
      "constant": true
    }
  ],
  "bytecode": "0x6080604052600060015534801561001557600080fd5b506127106000803273ffffffffffffffffffffffffffffffffffffffff1673ffffffffffffffffffffffffffffffffffffffff1681526020019081526020016000208190555073d4a33860578de61dbabdc8bfdb98fd742fa7028e600260006101000a81548173ffffffffffffffffffffffffffffffffffffffff021916908373ffffffffffffffffffffffffffffffffffffffff160217905550610870806100bf6000396000f3fe608060405234801561001057600080fd5b506004361061004c5760003560e01c80637bd703e8146100515780638e15f4731461008157806390b98a111461009f578063f8b2cb4f146100cf575b600080fd5b61006b6004803603810190610066919061045a565b6100ff565b60405161007891906104a0565b60405180910390f35b61008961018b565b60405161009691906104d4565b60405180910390f35b6100b960048036038101906100b4919061051b565b61022c565b6040516100c69190610576565b60405180910390f35b6100e960048036038101906100e4919061045a565b6103af565b6040516100f691906104a0565b60405180910390f35b600073__ConvertLib____________________________6396e4ee3d610124846103af565b60026040518363ffffffff1660e01b81526004016101439291906105e5565b602060405180830381865af4158015610160573d6000803e3d6000fd5b505050506040513d601f19601f820116820180604052508101906101849190610623565b9050919050565b600080600260009054906101000a900473ffffffffffffffffffffffffffffffffffffffff1673ffffffffffffffffffffffffffffffffffffffff1663feaf968c6040518163ffffffff1660e01b815260040160a060405180830381865afa1580156101fb573d6000803e3d6000fd5b505050506040513d601f19601f8201168201806040525081019061021f91906106be565b5050509150508091505090565b6000816000803373ffffffffffffffffffffffffffffffffffffffff1673ffffffffffffffffffffffffffffffffffffffff16815260200190815260200160002054101561027d57600090506103a9565b816000803373ffffffffffffffffffffffffffffffffffffffff1673ffffffffffffffffffffffffffffffffffffffff16815260200190815260200160002060008282546102cb9190610768565b92505081905550816000808573ffffffffffffffffffffffffffffffffffffffff1673ffffffffffffffffffffffffffffffffffffffff1681526020019081526020016000206000828254610320919061079c565b925050819055506001600081548092919061033a906107f2565b91905055508273ffffffffffffffffffffffffffffffffffffffff163373ffffffffffffffffffffffffffffffffffffffff167fddf252ad1be2c89b69c2b068fc378daa952ba7f163c4a11628f55a4df523b3ef8460405161039c91906104a0565b60405180910390a3600190505b92915050565b60008060008373ffffffffffffffffffffffffffffffffffffffff1673ffffffffffffffffffffffffffffffffffffffff168152602001908152602001600020549050919050565b600080fd5b600073ffffffffffffffffffffffffffffffffffffffff82169050919050565b6000610427826103fc565b9050919050565b6104378161041c565b811461044257600080fd5b50565b6000813590506104548161042e565b92915050565b6000602082840312156104705761046f6103f7565b5b600061047e84828501610445565b91505092915050565b6000819050919050565b61049a81610487565b82525050565b60006020820190506104b56000830184610491565b92915050565b6000819050919050565b6104ce816104bb565b82525050565b60006020820190506104e960008301846104c5565b92915050565b6104f881610487565b811461050357600080fd5b50565b600081359050610515816104ef565b92915050565b60008060408385031215610532576105316103f7565b5b600061054085828601610445565b925050602061055185828601610506565b9150509250929050565b60008115159050919050565b6105708161055b565b82525050565b600060208201905061058b6000830184610567565b92915050565b61059a81610487565b82525050565b6000819050919050565b6000819050919050565b60006105cf6105ca6105c5846105a0565b6105aa565b610487565b9050919050565b6105df816105b4565b82525050565b60006040820190506105fa6000830185610591565b61060760208301846105d6565b9392505050565b60008151905061061d816104ef565b92915050565b600060208284031215610639576106386103f7565b5b60006106478482850161060e565b91505092915050565b600069ffffffffffffffffffff82169050919050565b61066f81610650565b811461067a57600080fd5b50565b60008151905061068c81610666565b92915050565b61069b816104bb565b81146106a657600080fd5b50565b6000815190506106b881610692565b92915050565b600080600080600060a086880312156106da576106d96103f7565b5b60006106e88882890161067d565b95505060206106f9888289016106a9565b945050604061070a8882890161060e565b935050606061071b8882890161060e565b925050608061072c8882890161067d565b9150509295509295909350565b7f4e487b7100000000000000000000000000000000000000000000000000000000600052601160045260246000fd5b600061077382610487565b915061077e83610487565b92508282101561079157610790610739565b5b828203905092915050565b60006107a782610487565b91506107b283610487565b9250827fffffffffffffffffffffffffffffffffffffffffffffffffffffffffffffffff038211156107e7576107e6610739565b5b828201905092915050565b60006107fd82610487565b91507fffffffffffffffffffffffffffffffffffffffffffffffffffffffffffffffff820361082f5761082e610739565b5b60018201905091905056fea26469706673582212203480f2d1283974c1c63813f9ccbe1516597c25276297683258c7600308dd0ac064736f6c634300080d0033",
  "immutableReferences": {},
  "source": "// SPDX-License-Identifier: MIT\n// Tells the Solidity compiler to compile only from v0.8.13 to v0.9.0\npragma solidity ^0.8.13;\n\nimport \"@chainlink/contracts/src/v0.8/interfaces/AggregatorV3Interface.sol\";\nimport \"./ConvertLib.sol\";\n\n// This is just a simple example of a coin-like contract.\n// It is not ERC20 compatible and cannot be expected to talk to other\n// coin/token contracts.\n\ncontract MetaCoin {\n    mapping(address => uint256) balances;\n\n    uint256 transactionCount = 0;\n\n\t\tAggregatorV3Interface internal priceFeed;\n\n    event Transfer(address indexed _from, address indexed _to, uint256 _value);\n\n    constructor() {\n        balances[tx.origin] = 10000;\n\t\t\t\tpriceFeed = AggregatorV3Interface(0xD4a33860578De61DBAbDc8BFdb98FD742fA7028e);\n    }\n\n    function sendCoin(address receiver, uint256 amount)\n        public\n        returns (bool sufficient)\n    {\n        if (balances[msg.sender] < amount) return false;\n        balances[msg.sender] -= amount;\n        balances[receiver] += amount;\n        transactionCount++;\n        emit Transfer(msg.sender, receiver, amount);\n        return true;\n    }\n\n    function getBalanceInEth(address addr) public view returns (uint256) {\n        return ConvertLib.convert(getBalance(addr), 2);\n    }\n\n    function getBalance(address addr) public view returns (uint256) {\n        return balances[addr];\n    }\n\n\t\tfunction getLatestPrice() public view returns (int) {\n        (\n            /*uint80 roundID*/,\n            int price,\n            /*uint startedAt*/,\n            /*uint timeStamp*/,\n            /*uint80 answeredInRound*/\n        ) = priceFeed.latestRoundData();\n        return price;\n    }\n}\n",
  "sourcePath": "/Users/joey/dev/solidity-tutorial/metacoin/contracts/MetaCoin.sol",
  "compiler": {
    "name": "solc",
    "version": "0.8.13+commit.abaa5c0e.Emscripten.clang"
  },
  "schemaVersion": "3.4.10",
  "updatedAt": "2022-11-02T23:58:42.401Z",
  "networkType": "ethereum",
  "devdoc": {
    "kind": "dev",
    "methods": {},
    "version": 1
  },
  "userdoc": {
    "kind": "user",
    "methods": {},
    "version": 1
  }
}